:020000040800F2
:1000000000280020FD1A00088D1A0008931A000825
:10001000991A00089F1A0008A51A0008000000009D
:10002000000000000000000000000000AB1A000803
:10003000B71A000800000000C31A0008CF1A000811
:10004000451B0008451B0008451B0008451B000810
:10005000451B0008451B0008451B0008451B000800
:10006000451B0008451B0008451B0008451B0008F0
:10007000451B0008451B0008451B0008451B0008E0
:10008000451B0008451B0008451B0008451B0008D0
:10009000451B0008451B0008451B0008451B0008C0
:1000A000451B0008451B0008451B0008451B0008B0
:1000B000DD1A0008451B000800000000451B000871
:1000C000451B00080000000000000000451B000860
:1000D00000000000451B0008451B00080000000050
:1000E000451B0008451B0008451B000800000000D8
:1000F0000000000000000000000000000000000000
:0C01000000000000000000005FF808F1A3
:1001100010B5054C237833B9044B13B10448AFF341
:1001200000800123237010BD70000020000000003B
:100130009431000808B5034B1BB103490348AFF3E2
:10014000008008BD00000000740000209431000809
:1001500081F0004102E000BF83F0004330B54FEA78
:1001600041044FEA430594EA050F08BF90EA020FE5
:100170001FBF54EA000C55EA020C7FEA645C7FEA78
:10018000655C00F0E2804FEA5454D4EB5555B8BF9B
:100190006D420CDD2C4480EA020281EA030382EA0C
:1001A000000083EA010180EA020281EA0303362D9E
:1001B00088BF30BD11F0004F4FEA01314FF4801C71
:1001C0004CEA113102D0404261EB410113F0004F83
:1001D0004FEA03334CEA133302D0524263EB43033A
:1001E00094EA050F00F0A780A4F10104D5F1200ED8
:1001F0000DDB02FA0EFC22FA05F2801841F1000133
:1002000003FA0EF2801843FA05F359410EE0A5F106
:1002100020050EF1200E012A03FA0EFC28BF4CF037
:10022000020C43FA05F3C01851EBE37101F00045ED
:1002300007D54FF0000EDCF1000C7EEB00006EEBFA
:100240000101B1F5801F1BD3B1F5001F0CD3490884
:100250005FEA30004FEA3C0C04F101044FEA4452DB
:1002600012F5800F80F09A80BCF1004F08BF5FEA62
:10027000500C50F1000041EB045141EA050130BD42
:100280005FEA4C0C404141EB0101013C28BFB1F554
:10029000801FE9D291F0000F04BF01460020B1FA9F
:1002A00081F308BF2033A3F10B03B3F120020CDA72
:1002B0000C3208DD02F1140CC2F10C0201FA0CF050
:1002C00021FA02F10CE002F11402D8BFC2F1200CB5
:1002D00001FA02F120FA0CFCDCBF41EA0C0190406B
:1002E000E41AA2BF01EB0451294330BD6FEA0404B4
:1002F0001F3C1CDA0C340EDC04F11404C4F120029F
:1003000020FA04F001FA02F340EA030021FA04F3B0
:1003100045EA030130BDC4F10C04C4F1200220FA07
:1003200002F001FA04F340EA0300294630BD21FA45
:1003300004F0294630BD94F0000F83F4801306BF0B
:1003400081F480110134013D4EE77FEA645C18BFFF
:100350007FEA655C29D094EA050F08BF90EA020F96
:1003600005D054EA000C04BF1946104630BD91EA8E
:10037000030F1EBF0021002030BD5FEA545C05D191
:100380004000494128BF41F0004130BD14F58004D0
:100390003CBF01F5801130BD01F0004545F0FE4144
:1003A00041F470014FF0000030BD7FEA645C1ABF79
:1003B000194610467FEA655C1CBF0B46024650EAB0
:1003C000013406BF52EA033591EA030F41F40021DC
:1003D00030BD00BF90F0000F04BF0021704730B562
:1003E0004FF4806404F132044FF000054FF0000137
:1003F00050E700BF90F0000F04BF0021704730B5F8
:100400004FF4806404F1320410F0004548BF4042CC
:100410004FF000013EE700BF42004FEAE2014FEA21
:1004200031014FEA02701FBF12F07F4393F07F4FFC
:1004300081F06051704732F07F4208BF704793F0FF
:100440007F4F04BF41F40021704730B54FF4607412
:1004500001F0004521F000411CE700BF50EA010215
:1004600008BF704730B54FF000050AE050EA0102BE
:1004700008BF704730B511F0004502D5404261EB2E
:1004800041014FF4806404F132045FEA915C3FF46F
:10049000D8AE4FF003025FEADC0C18BF03325FEA0C
:1004A000DC0C18BF033202EBDC02C2F1200300FABD
:1004B00003FC20FA02F001FA03FE40EA0E0021FAE2
:1004C00002F11444BDE600BF70B54FF0FF0C4CF4D0
:1004D000E06C1CEA11541DBF1CEA135594EA0C0F82
:1004E00095EA0C0F00F0DEF82C4481EA030621EABD
:1004F0004C5123EA4C5350EA013518BF52EA0335F8
:1005000041F4801143F4801338D0A0FB02CE4FF0A9
:100510000005E1FB02E506F00042E0FB03E54FF0D9
:100520000006E1FB03569CF0000F18BF4EF0010ED1
:10053000A4F1FF04B6F5007F64F5407404D25FEACD
:100540004E0E6D4146EB060642EAC62141EA555180
:100550004FEAC52040EA5E504FEACE2EB4F1FD0CC2
:1005600088BFBCF5E06F1ED8BEF1004F08BF5FEA40
:10057000500E50F1000041EB045170BD06F00046F2
:1005800046EA010140EA020081EA0301B4EB5C049F
:10059000C2BFD4EB0C0541EA045170BD41F4801197
:1005A0004FF0000E013C00F3AB8014F1360FDEBFBC
:1005B000002001F0004170BDC4F10004203C35DA98
:1005C0000C341BDC04F11404C4F1200500FA05F31B
:1005D00020FA04F001FA05F240EA020001F00042BC
:1005E00021F0004110EBD37021FA04F642EB060132
:1005F0005EEA430E08BF20EAD37070BDC4F10C045C
:10060000C4F1200500FA04F320FA05F001FA04F21F
:1006100040EA020001F0004110EBD37041F100010B
:100620005EEA430E08BF20EAD37070BDC4F1200516
:1006300000FA05F24EEA020E20FA04F301FA05F27E
:1006400043EA020321FA04F001F0004121FA04F226
:1006500020EA020000EBD3705EEA430E08BF20EAF6
:10066000D37070BD94F0000F0FD101F00046400030
:1006700041EB010111F4801F08BF013CF7D041EAB2
:10068000060195F0000F18BF704703F000465200B6
:1006900043EB030313F4801F08BF013DF7D043EA87
:1006A0000603704794EA0C0F0CEA135518BF95EA3D
:1006B0000C0F0CD050EA410618BF52EA4306D1D1C4
:1006C00081EA030101F000414FF0000070BD50EAE3
:1006D000410606BF1046194652EA430619D094EA6D
:1006E0000C0F02D150EA013613D195EA0C0F05D157
:1006F00052EA03361CBF104619460AD181EA0301AB
:1007000001F0004141F0FE4141F470014FF0000062
:1007100070BD41F0FE4141F4780170BD70B54FF0FD
:10072000FF0C4CF4E06C1CEA11541DBF1CEA13557D
:1007300094EA0C0F95EA0C0F00F0A7F8A4EB05045F
:1007400081EA030E52EA03354FEA013100F0888056
:100750004FEA03334FF0805545EA131343EA12631F
:100760004FEA022245EA111545EA10654FEA0026D4
:100770000EF000419D4208BF964244F1FD0404F58D
:10078000407402D25B084FEA3202B61A65EB0305E9
:100790005B084FEA32024FF480104FF4002CB6EBA6
:1007A000020E75EB030E22BFB61A754640EA0C0026
:1007B0005B084FEA3202B6EB020E75EB030E22BF66
:1007C000B61A754640EA5C005B084FEA3202B6EBA7
:1007D000020E75EB030E22BFB61A754640EA9C0066
:1007E0005B084FEA3202B6EB020E75EB030E22BF36
:1007F000B61A754640EADC0055EA060E18D04FEAF4
:10080000051545EA16754FEA06164FEAC30343EA93
:1008100052734FEAC2025FEA1C1CC0D111F4801F60
:100820000BD141EA00014FF000004FF0004CB6E759
:1008300011F4801F04BF01430020B4F1FD0C88BFF8
:10084000BCF5E06F3FF6AFAEB5EB030C04BFB6EB03
:10085000020C5FEA500C50F1000041EB045170BDF6
:100860000EF0004E4EEA113114EB5C04C2BFD4EB23
:100870000C0541EA045170BD41F480114FF0000EA7
:10088000013C90E645EA060E8DE60CEA135594EA23
:100890000C0F08BF95EA0C0F3FF43BAF94EA0C0F26
:1008A0000AD150EA01347FF434AF95EA0C0F7FF49B
:1008B00025AF104619462CE795EA0C0F06D152EAEF
:1008C00003353FF4FDAE1046194622E750EA4106D3
:1008D00018BF52EA43067FF4C5AE50EA41047FF4E4
:1008E0000DAF52EA43057FF4EBAE12E74FEA410247
:1008F00012F5001215D211D56FF47873B3EB625272
:1009000012D94FEAC12343F0004343EA505311F098
:10091000004F23FA02F018BF404270474FF000002A
:10092000704750EA013005D111F0004008BF6FF068
:10093000004070474FF00000704700BF80B483B0A4
:1009400000AF7860094A7B6852F82330012B06D14A
:10095000064A7B68002142F82310012300E00023AF
:1009600018460C37BD4680BC704700BF8C00002085
:1009700080B483B000AF7860044A7B68012142F8FC
:10098000231000BF0C37BD4680BC70478C00002090
:1009900080B582B000AF00237B6083E0464A7B686D
:1009A00052F8232045497B6841F82320444A7B685C
:1009B00052F8232040497B6841F823207B68022BB2
:1009C0001FD07B68022B27DC7B68002B03D07B6861
:1009D000012B0BD020E001213A4801F0A1FB034696
:1009E0001946374A7B6842F8231016E00221354841
:1009F00001F096FB03461946314A7B6842F8231002
:100A00000BE004212F4801F08BFB034619462C4ACA
:100A10007B6842F8231000E000BF274A7B6852F849
:100A2000232027497B6851F823309A4237D1224A44
:100A30007B6852F8232021497B6851F823309A4281
:100A40002DD11E4A7B6852F823201F497B6851F83C
:100A500023309A4215D0194A7B6852F823201A494C
:100A60007B6841F82320184A7B6852F82330002B1A
:100A700015D1164B4FF4FA721A607868FFF778FFB9
:100A80000DE0124B1B68013B104A13600F4B1B68B3
:100A9000002B04D10C4A7B68012142F823107B68AB
:100AA00001337B607B68022B7FF778AF00BF00BF0C
:100AB0000837BD4680BD00BF100000202000002088
:100AC00000000020000C0140300000204000002009
:100AD00080B500AF01224FF48051104801F037FB80
:100AE00000224FF400510D4801F031FB00224FF479
:100AF00080410A4801F02BFB00222021084801F028
:100B000026FB00224021064801F021FB0122802122
:100B1000034801F01CFB00BF80BD00BF000801407E
:100B2000000C014080B500AF01224FF48051104805
:100B300001F00DFB00224FF400510D4801F007FBBE
:100B400000224FF480410A4801F001FB00222021DD
:100B5000084801F0FCFA01224021064801F0F7FAAA
:100B600000228021034801F0F2FA00BF80BD00BFDF
:100B700000080140000C014080B500AF00224FF496
:100B80008051104801F0E3FA00224FF400510D4863
:100B900001F0DDFA01224FF480410A4801F0D7FA52
:100BA00001222021084801F0D2FA00224021064803
:100BB00001F0CDFA00228021034801F0C8FA00BFFD
:100BC00080BD00BF00080140000C014080B500AFAF
:100BD00000224FF48051104801F0B9FA01224FF47D
:100BE00000510D4801F0B3FA00224FF480410A4849
:100BF00001F0ADFA01222021084801F0A8FA0022F4
:100C00004021064801F0A3FA00228021034801F0A8
:100C10009EFA00BF80BD00BF00080140000C0140EB
:100C200080B500AF4FF480410F4801F0A8FA0022D0
:100C30004FF400510C4801F08AFA00224FF4805121
:100C4000094801F084FA8021084801F098FA00224E
:100C50004021064801F07BFA00222021034801F0E0
:100C600076FA00BF80BD00BF00080140000C0140C3
:100C700080B500AF4FF480510F4801F080FA002298
:100C80004FF400510C4801F062FA00224FF4804109
:100C9000094801F05CFA2021084801F070FA0022AE
:100CA0004021064801F053FA00228021034801F058
:100CB0004EFA00BF80BD00BF00080140000C01409B
:100CC00080B500AF4FF400510F4801F058FA0022F0
:100CD0004FF480510C4801F03AFA00224FF4804161
:100CE000094801F034FA4021084801F048FA00228E
:100CF0002021064801F02BFA00228021034801F050
:100D000026FA00BF80BD00BF00080140000C014072
:100D100080B500AF4F4B1B68042B00F2988001A2F6
:100D200052F823F0390D00086F0D0008AF0D0008D0
:100D3000E50D0008250E000800224FF4004146484A
:100D400001F005FA01224FF48071434801F0FFF9E8
:100D5000424B1B68424A82FB03129210DB17D31AE4
:100D6000184600F02DF93B4B01221A606FE000227B
:100D70004FF48071384801F0EAF901224FF4007114
:100D8000354801F0E4F9354B1A68354B83FB021303
:100D90009910D317C91A0B469B000B445B00D11A5C
:100DA000084600F00DF92B4B02221A604FE000229A
:100DB0004FF40071284801F0CAF901224FF4806114
:100DC000254801F0C4F9274B1B68254A82FB031212
:100DD0009210DB17D31A184600F0F2F81D4B0322CD
:100DE0001A6034E000224FF480611B4801F0AFF933
:100DF00001224FF40061184801F0A9F9194B1A6853
:100E0000174B83FB02139910D317C91A0B469B008B
:100E10000B445B00D11A084600F0D2F80D4B0422B7
:100E20001A6014E000224FF400610B4801F08FF9C2
:100E300001224FF40041084801F089F90A4B1B6870
:100E4000184600F0BDF8034B00221A6000BF00BF37
:100E500080BD00BF9C00002000080140540000201D
:100E600067666666580000206000002080B582B08A
:100E700000AF78604E4B1B68042B00F2948001A2F7
:100E800052F823F0990E0008CD0E00080B0F000851
:100E90003F0F00087D0F000800224FF40041454835
:100EA00001F055F901224FF48071424801F04FF9E9
:100EB0007B68414A82FB03129210DB17D31A184653
:100EC00000F07EF83A4B01221A606CE000224FF4E9
:100ED0008071384801F03BF901224FF40071354828
:100EE00001F035F97A68344B83FB02139910D3175C
:100EF000C91A0B469B000B445B00D11A084600F050
:100F00005FF82B4B02221A604DE000224FF4007173
:100F1000284801F01CF901224FF48061254801F0B6
:100F200016F97B68244A82FB03129210DB17D31A4E
:100F3000184600F045F81E4B03221A6033E00022E9
:100F40004FF480611B4801F002F901224FF4006167
:100F5000184801F0FCF87A68174B83FB02139910CC
:100F6000D317C91A0B469B000B445B00D11A0846E5
:100F700000F026F80E4B04221A6014E000224FF411
:100F800000610C4801F0E3F801224FF400410948E8
:100F900001F0DDF8094B1B68184600F011F8044B0E
:100FA00000221A6000BF00BF0837BD4680BD00BFE9
:100FB0009C00002000080140676666666000002013
:100FC00080B582B000AF78607B68092B7FD801A222
:100FD00052F823F0FD0F0008131000082910000834
:100FE0003F100008551000086B1000088110000821
:100FF00097100008AD100008B910000800227E21EB
:10100000354801F0A4F801228021334801F09FF80F
:101010005EE000220C21304801F099F80122F22113
:101020002D4801F094F853E00022B6212A4801F03F
:101030008EF801224821284801F089F848E0002272
:101040009E21254801F083F801226021224801F009
:101050007EF83DE00022CC211F4801F078F8012203
:1010600032211D4801F073F832E00022DA211A48DB
:1010700001F06DF801222421174801F068F827E0FB
:1010800001220421144801F062F80022FA211248DA
:1010900001F05DF81CE000220E210F4801F057F826
:1010A0000122F0210C4801F052F811E00022FE214B
:1010B000094801F04CF80BE00022DE21064801F05F
:1010C00046F801222021044801F041F800E000BF69
:1010D00000BF0837BD4680BD0008014080B500AFA5
:1010E000774B1B68013B042B00F2C48001A252F82D
:1010F00023F000BF09110008311100088D1100080C
:10110000C11100081B120008FFF7E2FC6C4B022221
:101110001A606C4B1B68642202FB03F3184600F054
:10112000B9FB012000F0CAFB642000F0DBFBAAE061
:10113000FFF7CEFC644B1B68012B12D1604B0322DE
:101140001A60624B1B68624A1360604B1B68614AFD
:1011500013605E4B1B68642202FB03F3184600F029
:1011600099FB0020FFF7EAFB0346012B40F0848047
:10117000534B0C221A60584B02221A60142000F0C4
:10118000C5FB4FF47A7000F085FB75E0FFF7CAFCF1
:101190004D4B1B68012B71D1494B04221A60494BFE
:1011A0001B684B4A13604D4B1B684A4A1360454B02
:1011B0001B68642202FB03F3184600F06BFB5DE042
:1011C000FFF7DAFC404B1B68012B12D13C4B052288
:1011D0001A603E4B1B683E4A13603C4B1B683D4AFD
:1011E00013603A4B1B68642202FB03F3184600F0BD
:1011F00051FB0020FFF7A2FB0346012B40D1304BEF
:101200000D221A60344B02221A60142000F07EFB7B
:101210004FF47A7000F03EFB32E0FFF7D7FC2A4B28
:101220001B68012B12D1264B02221A602B4B1B6824
:10123000274A1360234B1B68264A1360214B1B6807
:10124000642202FB03F3184600F024FB0020FFF7A2
:1012500075FB0346012B15D1194B0E221A601E4B4C
:1012600002221A60142000F051FB4FF47A7000F053
:1012700011FB07E000BF06E000BF04E000BF02E092
:1012800000BF00E000BF164B1B68012B0CD1104BB8
:101290001B68013B0E4A13600E4B1B68013B0D4A55
:1012A0001360642000F01EFB0E4B1B68012B04D161
:1012B00000F01AF8012000F001FB00BF80BD00BF64
:1012C0005000002048000020F80000204C000020C2
:1012D000540000205800002060000020440000203E
:1012E00000010020FC00002080B500AF074B1B6808
:1012F000012B02D1FFF70CFD05E0054B1B681846DA
:10130000FFF7B4FD00BF00BF80BD00BF600000203C
:101310005C0000200000000080B500AF7E4B1B6821
:101320000E2B7DD00E2B00F384810C2B03D00D2BC4
:1013300000F008817DE1794B1B68012B04D1FFF798
:1013400097FC142000F0E2FA754B1B68012B12D1B8
:10135000714B04221A60734B1B68734A1360734B02
:101360001B68734A13606F4B1B68184600F0A6FA9F
:10137000704B01221A600020FFF7E0FA0346012BB0
:101380000DD1654B0E221A606B4B1B686B4A1360C4
:10139000684B03221A6042F2107000F07BFA0120C1
:1013A000FFF7CCFA0346012B04D1644B1B680133D1
:1013B000624A13600220FFF7C1FA0346012B40F096
:1013C0003A81554B02221A605A4B01221A605B4B3C
:1013D0001B68564A1360594B1B68462202FB03F3F5
:1013E000574A82FB03125211DB17D31A4D4A13607E
:1013F0004E4B1A684B4B1B68D31A4F4A13604B4B2A
:101400001B68494A1360474B1B68494A1360454BA8
:101410001B68642202FB03F3184600F03BFA0AE162
:101420003E4B1B68012B04D1FFF74AFC142000F04F
:101430006DFA3B4B1B68012B0FD1374B05221A600D
:101440003D4B1B68384A1360384B1B68384A1360A1
:10145000394B1B68184600F031FA0020FFF76EFA8E
:101460000346012B0DD12C4B0D221A602D4B1B680E
:10147000324A13602F4B04221A6042F2107000F0BF
:1014800009FA0120FFF75AFA0346012B04D12B4B2E
:101490001B680133294A13600220FFF74FFA034605
:1014A000012B40F0CA801C4B05221A60214B0122FF
:1014B0001A60224B1B68204A1360204B1B68184699
:1014C000FEF798FF12A3D3E90023FFF727F902469E
:1014D0000B4610461946FFF709FA0346134A1360F4
:1014E000124B1A68144B1B68D31A0E4A1360124B26
:1014F0001B680D4A13600D4B1B680D4A13600E4BA1
:101500001B68642202FB03F3184600F0C3F994E061
:10151000333333333333D33F5000002004010020F2
:10152000F800002048000020540000204400002063
:1015300058000020600000204C0000205C000020CB
:101540001F85EB51424B1B68012B04D1FFF768FB51
:10155000142000F0DBF93F4B1B68012B0FD13E4BF1
:1015600004221A603D4B1B683D4A13603D4B1B68CB
:101570003D4A1360394B1B68184600F09FF9002064
:10158000FFF7DCF90346012B0DD1334B0C221A6017
:10159000344B1B68354A1360354B02221A6042F205
:1015A000107000F077F90120FFF7C8F90346012B0E
:1015B00004D12E4B1B6801332C4A13600220FFF725
:1015C000BDF90346012B3AD1234B04221A60284B64
:1015D00001221A60254B1B68204A1360234B1B68AD
:1015E0001846FEF707FF18A3D3E90023FFF796F884
:1015F00002460B4610461946FFF778F90346194A8A
:101600001360184B1A68154B1B68D31A194A1360DC
:10161000124B1B68124A1360124B1B68124A13606C
:101620000E4B1B68642202FB03F3184600F032F9EC
:1016300005E000BF04E000BF02E000BF00E000BF23
:1016400000BF80BDAFF30080666666666666E63FF3
:1016500004010020F8000020500000204800002075
:101660005400002044000020580000205C000020AE
:10167000600000204C00002080B500AF00F064FA4C
:1016800000F00EF800F094F800F046F8034801F07E
:10169000BDF9FFF723FDFFF73FFEFAE7A0000020AA
:1016A00080B590B000AF07F118032822002118463A
:1016B00001F044FD3B1D00221A605A609A60DA6016
:1016C0001A610223BB610123BB621023FB6200236A
:1016D0007B6307F11803184600F06AFD0346002BF0
:1016E00001D000F0D1F80F237B600023BB60002302
:1016F000FB6000233B6100237B613B1D00211846FA
:1017000000F0D8FF0346002B01D000F0BDF800BF69
:101710004037BD4680BD000080B586B000AF07F100
:10172000080300221A605A609A60DA603B46002281
:101730001A605A601D4B4FF080421A601B4B41F6F5
:101740003F725A60194B00229A60184B0922DA60E6
:10175000164B00221A61154B00229A61134801F0C2
:1017600005F90346002B01D000F08EF84FF48053AA
:10177000BB6007F1080319460C4801F09BFA0346C9
:10178000002B01D000F080F800233B6000237B6039
:101790003B461946054801F067FC0346002B01D083
:1017A00000F072F800BF1837BD4680BDA0000020D1
:1017B00080B586B000AF07F1080300221A605A60B6
:1017C0009A60DA60274B9B69264A43F004039361D1
:1017D000244B9B6903F004037B607B68214B9B696E
:1017E000204A43F0080393611E4B9B6903F00803F2
:1017F0003B603B6800224FF6FE711B4800F0A7FCDF
:101800000022E021194800F0A2FC4FF6FE73BB60F5
:101810000123FB6000233B6102237B6107F1080386
:101820001946114800F000FB0723BB600023FB6052
:1018300001233B6107F1080319460C4800F0F4FA54
:10184000E023BB600123FB6000233B6102237B613B
:1018500007F108031946054800F0E6FA00BF1837FB
:10186000BD4680BD0010024000080140000C014050
:1018700080B582B000AF786000F05CF8FFF788F8C0
:1018800000BF0837BD4680BD80B400AF72B600BF50
:10189000FEE7000080B483B000AF7860054A7B6843
:1018A0001360054B00221A6000BF0C37BD4680BC98
:1018B000704700BFE8000020F800002080B483B02B
:1018C00000AF7860054A7B681360054B00221A6000
:1018D00000BF0C37BD4680BC704700BFEC00002045
:1018E000FC00002080B483B000AF7860054A7B68BC
:1018F0001360054B00221A6000BF0C37BD4680BC48
:10190000704700BFF00000200001002080B483B0C9
:1019100000AF7860054A7B681360054B00221A60AF
:1019200000BF0C37BD4680BC704700BFF4000020EC
:101930000401002080B400AF214B1B68002B0BDD9D
:101940001F4B1B68013B1E4A13601D4B1B68002B7D
:1019500002DC1C4B01221A601B4B1B68002B0BDDA9
:10196000194B1B68013B184A1360174B1B68002B6F
:1019700002DC164B01221A60154B1B68002B0BDD95
:10198000134B1B68013B124A1360114B1B68002B61
:1019900002DC104B01221A600F4B1B68002B0BDD81
:1019A0000D4B1B68013B0C4A13600B4B1B68002B53
:1019B00002DC0A4B01221A6000BFBD4680BC7047A2
:1019C000E8000020F8000020EC000020FC000020CF
:1019D000F000002000010020F4000020040100209D
:1019E00080B485B000AF154B9B69144A43F00103E6
:1019F0009361124B9B6903F00103BB60BB680F4B03
:101A0000DB690E4A43F08053D3610C4BDB6903F072
:101A100080537B607B680A4B5B68FB60FB6823F04C
:101A2000E063FB60FB6843F08063FB60044AFB6893
:101A3000536000BF1437BD4680BC704700100240A1
:101A40000000014080B584B000AF78607B681B68FF
:101A5000B3F1804F13D10C4BDB690B4A43F0010308
:101A6000D361094BDB6903F00103FB60FB680022D3
:101A700000211C2000F0A1F91C2000F0BAF900BFE1
:101A80001037BD4680BD00BF0010024080B400AFDB
:101A9000FEE780B400AFFEE780B400AFFEE780B49D
:101AA00000AFFEE780B400AFFEE780B400AF00BF38
:101AB000BD4680BC704780B400AF00BFBD4680BC4F
:101AC000704780B400AF00BFBD4680BC704780B592
:101AD00000AF00F07FF800BF80BD000080B500AF10
:101AE000024800F0DFFF00BF80BD00BFA000002063
:101AF00080B400AF00BFBD4680BC7047FFF7F8FF61
:101B00000B480C490C4A002302E0D458C45004335B
:101B1000C4188C42F9D3094A094C002301E0136030
:101B20000432A242FBD301F011FBFFF7A5FD704781
:101B30000000002070000020D83100087000002054
:101B40000C010020FEE7000080B500AF084B1B68C9
:101B5000074A43F010031360032000F023F90F201D
:101B600000F008F8FFF73CFF0023184680BD00BFD7
:101B70000020024080B582B000AF7860124B1A6836
:101B8000124B1B7819464FF47A73B3FBF1F3B2FB97
:101B9000F3F3184600F03BF90346002B01D0012374
:101BA0000EE07B680F2B0AD8002279684FF0FF30D7
:101BB00000F003F9064A7B681360002300E001236C
:101BC00018460837BD4680BD640000206C00002028
:101BD0006800002080B400AF054B1B781A46054B07
:101BE0001B681344034A136000BFBD4680BC7047A6
:101BF0006C0000200801002080B400AF024B1B687D
:101C00001846BD4680BC70470801002080B485B0EE
:101C100000AF78607B6803F00703FB600C4BDB6868
:101C2000BB60BA684FF6FF031340BB60FB681A0243
:101C3000BB68134343F0BF6343F40033BB60044A03
:101C4000BB68D36000BF1437BD4680BC704700BF7F
:101C500000ED00E080B400AF044BDB681B0A03F02A
:101C600007031846BD4680BC704700BF00ED00E08A
:101C700080B483B000AF0346FB7197F90730002BA7
:101C80000BDBFB7903F01F02064997F907305B096C
:101C9000012000FA02F241F8232000BF0C37BD46B4
:101CA00080BC704700E100E080B483B000AF034621
:101CB0003960FB7197F90730002B0ADB3B68DAB219
:101CC0000C4997F907301201D2B20B4483F8002374
:101CD0000AE03B68DAB20849FB7903F00F03043BE2
:101CE0001201D2B20B441A7600BF0C37BD4680BC3D
:101CF000704700BF00E100E000ED00E080B489B073
:101D000000AFF860B9607A60FB6803F00703FB611D
:101D1000FB69C3F10703042B28BF0423BB61FB69E4
:101D20000433062B02D9FB69033B00E000237B61EF
:101D30004FF0FF32BB6902FA03F3DA43BB681A4083
:101D40007B699A404FF0FF317B6901FA03F3D94375
:101D50007B680B40134318462437BD4680BC704750
:101D600080B582B000AF78607B68013BB3F1807FC3
:101D700001D301230FE00A4A7B68013B53600F2126
:101D80004FF0FF30FFF790FF054B00229A60044BA5
:101D900007221A60002318460837BD4680BD00BFE1
:101DA00010E000E080B582B000AF78607868FFF79F
:101DB0002DFF00BF0837BD4680BD80B586B000AF9F
:101DC0000346B9607A60FB7300237B61FFF742FF33
:101DD00078617A68B9687869FFF790FF024697F9E9
:101DE0000F3011461846FFF75FFF00BF1837BD469A
:101DF00080BD80B582B000AF0346FB7197F9073014
:101E00001846FFF735FF00BF0837BD4680BD80B5D7
:101E100082B000AF78607868FFF7A2FF03461846EB
:101E20000837BD4680BD000080B48BB000AF78603D
:101E3000396000237B6200233B6261E101227B6AFF
:101E400002FA03F3FB613B681B68FA691340BB614C
:101E5000BA69FB699A4240F050813B685B68974AD7
:101E600093425ED0954A934275D8954A934258D092
:101E7000934A93426FD8934A934252D0914A9342E5
:101E800069D8914A93424CD08F4A934263D88F4A83
:101E9000934246D08D4A93425DD8122B2AD8122BFA
:101EA00059D801A252F823F0231F0008FD1E000894
:101EB0000F1F0008511F0008571F0008571F000878
:101EC000571F0008571F0008571F0008571F00081A
:101ED000571F0008571F0008571F0008571F00080A
:101EE000571F0008571F0008571F0008051F00084C
:101EF000191F0008764A934213D02CE03B68DB6838
:101F00003B6229E03B68DB6804333B6224E03B68CA
:101F1000DB6808333B621FE03B68DB680C333B62E5
:101F20001AE03B689B68002B02D104233B6213E05C
:101F30003B689B68012B05D108233B627B68FA69EB
:101F40001A6109E008233B627B68FA695A6103E081
:101F500000233B6200E000BFBB69FF2B01D87B6818
:101F600001E07B6804337B61BB69FF2B02D87B6A8D
:101F70009B0002E07B6A083B9B003B617B691A681F
:101F80000F213B6901FA03F3DB431A40396A3B69CD
:101F900001FA03F31A437B691A603B685B6803F03C
:101FA0008053002B00F0A9804A4B9B69494A43F0BB
:101FB00001039361474B9B6903F00103BB60BB685E
:101FC000454A7B6A9B08023352F82330FB607B6AE8
:101FD00003F003039B000F2202FA03F3DB43FA68CA
:101FE0001340FB607B683D4A93420DD07B683C4ABE
:101FF000934207D07B683B4A934201D1022304E01D
:10200000032302E0012300E000237A6A02F00302C6
:1020100092009340FA681343FB602F497B6A9B0848
:102020000233FA6841F823203B685B6803F48013AD
:10203000002B06D02C4B9A682B49BB6913438B604D
:1020400006E0294B9A68BB69DB43274913408B6044
:102050003B685B6803F40013002B06D0224BDA6860
:102060002149BB691343CB6006E01F4BDA68BB69AB
:10207000DB431D491340CB603B685B6803F40033CE
:10208000002B06D0184B5A681749BB6913434B60A5
:1020900006E0154B5A68BB69DB43134913404B609C
:1020A0003B685B6803F48033002B1FD00E4B1A682B
:1020B0000D49BB6913430B601FE000BF00003210E5
:1020C000000031100000221000002110000012104A
:1020D0000000111000100240000001400008014003
:1020E000000C014000100140000401400B4B1A6835
:1020F000BB69DB43094913400B607B6A01337B6298
:102100003B681A687B6A22FA03F3002B7FF496AED1
:1021100000BF00BF2C37BD4680BC704700040140A3
:1021200080B485B000AF78600B467B807B689A688E
:102130007B881340002B02D00123FB7301E00023B6
:10214000FB73FB7B18461437BD4680BC704780B4D8
:1021500083B000AF78600B467B8013467B707B7842
:10216000002B03D07A887B681A6103E07B881A040D
:102170007B681A6100BF0C37BD4680BC704780B4D5
:1021800085B000AF78600B467B807B68DB68FB60C6
:102190007A88FB6813401A04FB68D9437B880B409C
:1021A0001A437B681A6100BF1437BD4680BC704774
:1021B00080B586B000AF78607B68002B01D1012329
:1021C00072E27B681B6803F00103002B00F087803C
:1021D000924B5B6803F00C03042B0CD08F4B5B68B5
:1021E00003F00C03082B12D18C4B5B6803F4803393
:1021F000B3F5803F0BD1894B1B6803F40033002BF0
:102200006CD07B685B68002B68D101234CE27B6853
:102210005B68B3F5803F06D1804B1B687F4A43F46F
:10222000803313602EE07B685B68002B0CD17B4B06
:102230001B687A4A23F480331360784B1B68774A13
:1022400023F4802313601DE07B685B68B3F5A02F47
:102250000CD1724B1B68714A43F4802313606F4B9F
:102260001B686E4A43F4803313600BE06B4B1B68B2
:102270006A4A23F480331360684B1B68674A23F46F
:10228000802313607B685B68002B13D0FFF7B4FCDE
:10229000386108E0FFF7B0FC02463B69D31A642BB3
:1022A00001D9032300E25D4B1B6803F40033002BCC
:1022B000F0D014E0FFF7A0FC386108E0FFF79CFCC9
:1022C00002463B69D31A642B01D90323ECE1534B3B
:1022D0001B6803F40033002BF0D100E000BF7B68E3
:1022E0001B6803F00203002B63D04C4B5B6803F0C8
:1022F0000C03002B0BD0494B5B6803F00C03082B3D
:102300001CD1464B5B6803F48033002B16D1434B42
:102310001B6803F00203002B05D07B681B69012BAF
:1023200001D00123C0E13D4B1B6823F0F8027B681C
:102330005B69DB00394913430B603AE07B681B693A
:10234000002B20D0364B01221A60FFF755FC386174
:1023500008E0FFF751FC02463B69D31A022B01D972
:102360000323A1E12D4B1B6803F00203002BF0D0E7
:102370002A4B1B6823F0F8027B685B69DB00274966
:1023800013430B6015E0264B00221A60FFF734FC64
:10239000386108E0FFF730FC02463B69D31A022B94
:1023A00001D9032380E11D4B1B6803F00203002BBE
:1023B000F0D17B681B6803F00803002B3AD07B68E0
:1023C0009B69002B19D0174B01221A60FFF714FCF0
:1023D000386108E0FFF710FC02463B69D31A022B74
:1023E00001D9032360E10D4B5B6A03F00203002B6C
:1023F000F0D0012000F09CFA1CE00A4B00221A6089
:10240000FFF7FAFB38610FE0FFF7F6FB02463B6986
:10241000D31A022B08D9032346E100BF0010024063
:102420000000424280044242924B5B6A03F0020386
:10243000002BE9D17B681B6803F00403002B00F03C
:10244000A6800023FB758B4BDB6903F08053002BC8
:102450000DD1884BDB69874A43F08053D361854BAC
:10246000DB6903F08053BB60BB680123FB75824BC3
:102470001B6803F48073002B18D17F4B1B687E4AC6
:1024800043F480731360FFF7B7FB386108E0FFF790
:10249000B3FB02463B69D31A642B01D9032303E142
:1024A000754B1B6803F48073002BF0D07B68DB68EE
:1024B000012B06D16F4B1B6A6E4A43F00103136276
:1024C0002DE07B68DB68002B0CD16A4B1B6A694AE4
:1024D00023F001031362674B1B6A664A23F004036F
:1024E00013621CE07B68DB68052B0CD1614B1B6A17
:1024F000604A43F0040313625E4B1B6A5D4A43F07B
:10250000010313620BE05B4B1B6A5A4A23F0010381
:102510001362584B1B6A574A23F0040313627B680B
:10252000DB68002B15D0FFF767FB38610AE0FFF787
:1025300063FB02463B69D31A41F28832934201D9C8
:102540000323B1E04B4B1B6A03F00203002BEED0D8
:1025500014E0FFF751FB38610AE0FFF74DFB02463C
:102560003B69D31A41F28832934201D903239BE09D
:10257000404B1B6A03F00203002BEED1FB7D012BC5
:1025800005D13C4BDB693B4A23F08053D3617B6828
:10259000DB69002B00F08780364B5B6803F00C038F
:1025A000082B61D07B68DB69022B46D1334B0022BC
:1025B0001A60FFF721FB386108E0FFF71DFB0246B8
:1025C0003B69D31A022B01D903236DE0294B1B6809
:1025D00003F00073002BF0D17B681B6AB3F5803FDA
:1025E00008D1244B5B6823F400327B689B68214947
:1025F00013434B601F4B5B6823F474127B68196AAA
:102600007B685B6A0B431B4913434B601B4B0122E6
:102610001A60FFF7F1FA386108E0FFF7EDFA0246B9
:102620003B69D31A022B01D903233DE0114B1B68F0
:1026300003F00073002BF0D035E0104B00221A603D
:10264000FFF7DAFA386108E0FFF7D6FA02463B698D
:10265000D31A022B01D9032326E0064B1B6803F093
:102660000073002BF0D11EE07B68DB69012B07D1E2
:10267000012319E000100240007000406000424257
:102680000B4B5B68FB60FB6803F480327B681B6A62
:102690009A4206D1FB6803F470127B685B6A9A4227
:1026A00001D0012300E0002318461837BD4680BD45
:1026B0000010024080B584B000AF786039607B685C
:1026C000002B01D10123D0E06A4B1B6803F0070304
:1026D0003A689A4210D9674B1B6823F00702654994
:1026E0003B6813430B60634B1B6803F007033A68B6
:1026F0009A4201D00123B8E07B681B6803F0020313
:10270000002B20D07B681B6803F00403002B05D04E
:10271000594B5B68584A43F4E06353607B681B681D
:1027200003F00803002B05D0534B5B68524A43F477
:1027300060535360504B5B6823F0F0027B689B68EA
:102740004D4913434B607B681B6803F00103002B6A
:1027500040D07B685B68012B07D1474B1B6803F4B3
:102760000033002B15D101237FE07B685B68022BCF
:1027700007D1414B1B6803F00073002B09D10123E3
:1027800073E03D4B1B6803F00203002B01D10123D2
:102790006BE0394B5B6823F003027B685B6836496A
:1027A00013434B60FFF728FAF8600AE0FFF724FABA
:1027B0000246FB68D31A41F28832934201D90323BF
:1027C00053E02D4B5B6803F00C027B685B689B0059
:1027D0009A42EBD1274B1B6803F007033A689A42F1
:1027E00010D2244B1B6823F0070222493B68134395
:1027F0000B60204B1B6803F007033A689A4201D034
:10280000012332E07B681B6803F00403002B08D02F
:10281000194B5B6823F4E0627B68DB68164913435D
:102820004B607B681B6803F00803002B09D0124B38
:102830005B6823F460527B681B69DB000E4913431D
:102840004B6000F021F802460B4B5B681B0903F05C
:102850000F030A49CB5C22FA03F3094A1360094BC0
:102860001B681846FFF786F9002318461037BD4647
:1028700080BD00BF0020024000100240AC310008C3
:10288000640000206800002080B487B000AF0023FF
:10289000FB600023BB6000237B6100237B6000237F
:1028A0003B611E4B5B68FB60FB6803F00C03042B71
:1028B00002D0082B03D027E0194B3B6127E0FB68CF
:1028C0009B0C03F00F03174AD35C7B60FB6803F497
:1028D0008033002B10D0114B5B685B0C03F00103BD
:1028E000114AD35CBB607B680D4A03FB02F2BB68F4
:1028F000B2FBF3F37B6104E07B680C4A02FB03F359
:102900007B617B693B6102E0054B3B6100BF3B693A
:1029100018461C37BD4680BC704700BF00100240FF
:1029200000127A00BC310008CC31000800093D00DB
:1029300080B485B000AF78600A4B1B680A4AA2FBDE
:1029400003235B0A7A6802FB03F3FB6000BFFB68AA
:102950005A1EFA60002BF9D100BF00BF1437BD46E4
:1029600080BC704764000020D34D621080B582B0F7
:1029700000AF78607B68002B01D1012341E07B68C8
:1029800093F83D30DBB2002B06D17B68002283F840
:102990003C207868FFF756F87B68022283F83D20D8
:1029A0007B681A687B6804331946104600F06EFA9B
:1029B0007B68012283F846207B68012283F83E2051
:1029C0007B68012283F83F207B68012283F8402046
:1029D0007B68012283F841207B68012283F8422032
:1029E0007B68012283F843207B68012283F844201E
:1029F0007B68012283F845207B68012283F83D2013
:102A0000002318460837BD4680BD000080B485B05D
:102A100000AF78607B6893F83D30DBB2012B01D0CA
:102A2000012335E07B68022283F83D207B681B6828
:102A3000DA687B681B6842F00102DA607B681B6819
:102A4000164A934209D07B681B68B3F1804F04D0CB
:102A50007B681B68124A934211D17B681B689B6894
:102A600003F00703FB60FB68062B10D07B681B6834
:102A70001A687B681B6842F001021A6007E07B68F5
:102A80001B681A687B681B6842F001021A60002309
:102A900018461437BD4680BC704700BF002C01406B
:102AA0000004004080B582B000AF78607B681B688E
:102AB0001B6903F00203022B22D17B681B68DB68D1
:102AC00003F00203022B1BD17B681B686FF002022C
:102AD0001A617B6801221A777B681B689B6903F087
:102AE0000303002B03D0786800F0B4F905E07868A0
:102AF00000F0A7F9786800F0B6F97B6800221A7731
:102B00007B681B681B6903F00403042B22D17B68DC
:102B10001B68DB6803F00403042B1BD17B681B6874
:102B20006FF004021A617B6802221A777B681B68C7
:102B30009B6903F44073002B03D0786800F08AF996
:102B400005E0786800F07DF9786800F08CF97B6822
:102B500000221A777B681B681B6903F00803082BA7
:102B600022D17B681B68DB6803F00803082B1BD1AC
:102B70007B681B686FF008021A617B6804221A7771
:102B80007B681B68DB6903F00303002B03D07868C4
:102B900000F060F905E0786800F053F9786800F01B
:102BA00062F97B6800221A777B681B681B6903F057
:102BB0001003102B22D17B681B68DB6803F0100325
:102BC000102B1BD17B681B686FF010021A617B68A9
:102BD00008221A777B681B68DB6903F44073002BBB
:102BE00003D0786800F036F905E0786800F029F93C
:102BF000786800F038F97B6800221A777B681B68D8
:102C00001B6903F00103012B0ED17B681B68DB6895
:102C100003F00103012B07D17B681B686FF00102F1
:102C20001A617868FEF724FE7B681B681B6903F055
:102C30008003802B0ED17B681B68DB6803F0800368
:102C4000802B07D17B681B686FF080021A6178685F
:102C500000F06BFA7B681B681B6903F04003402B94
:102C60000ED17B681B68DB6803F04003402B07D163
:102C70007B681B686FF040021A61786800F0FCF80E
:102C80007B681B681B6903F02003202B0ED17B6837
:102C90001B68DB6803F02003202B07D17B681B68CF
:102CA0006FF020021A61786800F036FA00BF08372A
:102CB000BD4680BD80B584B000AF78603960002328
:102CC000FB737B6893F83C30012B01D10223B4E005
:102CD0007B68012283F83C207B68022283F83D2038
:102CE0007B681B689B68BB60BB6823F07703BB6095
:102CF000BB6823F47F43BB607B681B68BA689A603B
:102D00003B681B68B3F5005F3ED0B3F5005F00F28F
:102D10008780B3F5805F00F08680B3F5805F7FD851
:102D2000702B1AD0702B7BD8602B50D0602B77D8AB
:102D3000502B3CD0502B73D8402B58D0402B6FD801
:102D4000302B64D0302B6BD8202B60D0202B67D851
:102D5000002B5CD0102B5AD062E07B6818683B686F
:102D600099683B685A683B68DB6800F05EF97B68ED
:102D70001B689B68BB60BB6843F07703BB607B68E4
:102D80001B68BA689A604FE07B6818683B6899686E
:102D90003B685A683B68DB6800F047F97B681B6852
:102DA0009A687B681B6842F480429A603CE07B68CA
:102DB00018683B6859683B68DB681A4600F0BEF843
:102DC0007B681B685021184600F015F92CE07B68E1
:102DD00018683B6859683B68DB681A4600F0DCF805
:102DE0007B681B686021184600F005F91CE07B68D1
:102DF00018683B6859683B68DB681A4600F09EF823
:102E00007B681B684021184600F0F5F80CE07B68F1
:102E10001A683B681B681946104600F0ECF803E09E
:102E20000123FB7300E000BF7B68012283F83D2093
:102E30007B68002283F83C20FB7B18461037BD4698
:102E400080BD80B483B000AF786000BF0C37BD4652
:102E500080BC704780B483B000AF786000BF0C378F
:102E6000BD4680BC704780B483B000AF786000BFBF
:102E70000C37BD4680BC704780B483B000AF78602B
:102E800000BF0C37BD4680BC7047000080B485B0E1
:102E900000AF786039607B681B68FB607B68254AFF
:102EA000934207D07B68B3F1804F03D07B68224AFE
:102EB000934208D1FB6823F07003FB603B685B68BA
:102EC000FA681343FB607B681A4A934207D07B6819
:102ED000B3F1804F03D07B68174A934208D1FB6857
:102EE00023F44073FB603B68DB68FA681343FB60C4
:102EF000FB6823F080023B685B691343FB607B68DF
:102F0000FA681A603B689A687B68DA623B681A68FC
:102F10007B689A627B68074A934203D13B681A69CF
:102F20007B681A637B6801225A6100BF1437BD4673
:102F300080BC7047002C01400004004080B487B082
:102F400000AFF860B9607A60FB681B6A7B61FB6860
:102F50001B6A23F00102FB681A62FB689B693B61F4
:102F60003B6923F0F0033B617B681B013A69134323
:102F70003B617B6923F00A037B617A69BB68134379
:102F80007B61FB683A699A61FB687A691A6200BFE3
:102F90001C37BD4680BC704780B487B000AFF86076
:102FA000B9607A60FB681B6A7B61FB681B6A23F06F
:102FB0001002FB681A62FB689B693B613B6923F462
:102FC00070433B617B681B033A6913433B617B6938
:102FD00023F0A0037B61BB681B017A6913437B610B
:102FE000FB683A699A61FB687A691A6200BF1C370C
:102FF000BD4680BC704780B485B000AF7860396052
:103000007B689B68FB60FB6823F07003FB603A6899
:10301000FB68134343F00703FB607B68FA689A6020
:1030200000BF1437BD4680BC704780B487B000AF86
:10303000F860B9607A603B60FB689B687B617B6984
:1030400023F47F437B613B681A027B681A43BB68A9
:1030500013437A6913437B61FB687A699A6000BF06
:103060001C37BD4680BC704780B485B000AF786027
:1030700039607B6893F83C30012B01D1022341E099
:103080007B68012283F83C207B68022283F83D2084
:103090007B681B685B68FB607B681B689B68BB6028
:1030A000FB6823F07003FB603B681B68FA681343FE
:1030B000FB607B681B68FA685A607B681B68144A6F
:1030C000934209D07B681B68B3F1804F04D07B68C2
:1030D0001B68104A93420CD1BB6823F08003BB608D
:1030E0003B685B68BA681343BB607B681B68BA685F
:1030F0009A607B68012283F83D207B68002283F878
:103100003C20002318461437BD4680BC704700BFE2
:10311000002C01400004004080B483B000AF786010
:1031200000BF0C37BD4680BC704780B483B000AF91
:10313000786000BF0C37BD4680BC70470346024430
:10314000934200D1704703F8011BF9E770B50026E0
:103150000C4D0D4C641BA410A64209D100F01AF8C6
:1031600000260A4D0A4C641BA410A64205D170BD6E
:1031700055F8043B98470136EEE755F8043B98476D
:103180000136F2E7D0310008D0310008D031000814
:10319000D4310008F8B500BFF8BC08BC9E467047A3
:0C31A000F8B500BFF8BC08BC9E467047A4
:1031AC0000000000000000000102030406070809EB
:1031BC0002030405060708090A0B0C0D0E0F10106C
:0431CC0001020000FC
:0431D00035010008BD
:0431D40011010008DD
:1031D80001000000010000000100000001000000E3
:1031E80001000000010000000100000001000000D3
:1031F80001000000010000000100000001000000C3
:1032080001000000010000000100000001000000B2
:10321800F4010000050000000300000002000000A7
:103228000100000005000000030000000500000088
:10323800010000000024F40010000000010000005C
:0400000508001AFDD8
:00000001FF
